:1000000004308A00C52C00000A108A100A118207E9
:1000100028340C34013406340C264429311D253390
:1000200000000A264429321D253300003F30840099
:100030008313000803192A280130F800F701F70B91
:100040001F28F80B1E284A30F700F70B2528282810
:10005000800B1C280800460EF039F7000F30080509
:1000600077048800000008143528081008000808E4
:10007000F700080E0F39F800080088100F308316BB
:100080000805F038880083120815000008140000E5
:1000900037207808C6000810000008140000372038
:1000A0007808C50008100F308316080588008312F1
:1000B000460EF700F030F70577084504F800780899
:1000C000C500C51B3E28431C881043188814000037
:1000D000081100000810440EC5000F30C505450882
:1000E000C6002B2044080F39C500C6002B2008008D
:1000F0000F30831608058800081088100811831235
:100100008810081108100F30BF0016200130B10010
:100110003108033C031C94280330C6002B20053013
:10012000BF001620B10A88280230C6002B20B1017A
:100130003108033C031CA52831080420B200C30188
:100140003208C4003D20B10A98288A110A122C2DC9
:100150001230B402031CBB28343084008313FC30FB
:1001600080050310800C800C00080319BB28B928F7
:100170000000800BB8280800A501A401A508031DF4
:10018000E5282408313C031CE52883160610831259
:1001900006140130BF0016200230B100F730B40061
:1001A000A820B10BCE288316061083120610123039
:1001B000BF0016200230B100F730B400A820B10B08
:1001C000DC28A40A0319A50ABE288A110A122D2DBB
:1001D0008E30F7003208F8003108F900FA01F8080B
:1001E000031DFC287908F800F9010830F702F80827
:1001F000031DFC28F70104290310F81B0329F90D3E
:10020000F80DF703FC28F81308003E080C3A031910
:100210001029063A03191829023A03192E293329FD
:10022000C3010130C4003D200230BF00162039292F
:100230000130BF000230C000400B1F29222940308E
:10024000C1002329C10101303F02C10741088038A4
:10025000C200C3014208C4003D203929C301103047
:10026000C4003D2039290130C3003E08C4003D20B0
:1002700039290800831603178C170C14000000009E
:100280000318692983120C087F390313B20003177E
:100290000D080313B30003170F080313B40032084B
:1002A000BE000521330803178D000313340803171C
:1002B0008F0083168C170C140000000083120313A8
:1002C000B10B6329662983160317692987298316C9
:1002D000031783120C0D0E0D7F390313B2000317A1
:1002E0000D080313B30003170F080313B4003208FB
:1002F000BE000521330803178D00031334080317CC
:100300008F008D0A03198F0A0313B10B3A290800D5
:10031000F701F801F901FA01C601C701C801C901D5
:1003200045084404430442040319C6292030CA0086
:100330000310BE0DBF0DC00DC10DC60DC70DC80DFC
:10034000C90D45084902031DAF2944084802031D91
:10035000AF2943084702031DAF2942084602031C88
:10036000C0294208C6024308031C430FC7024408C1
:10037000031C440FC8024508031C450FC90203149F
:10038000F70DF80DF90DFA0DCA0B982946308400C7
:10039000831308000408B6003508B80003195C2A66
:1003A0003408C1003308C0003208BF003108BE0065
:1003B000C501C4012030C3008230C2003E080319C9
:1003C0004E2AC600420803194E2AC6070318EF2911
:1003D0007F30C602031C4E2A03194E2AF3298130AE
:1003E000C60703184E2A4608F700F801F901FA017A
:1003F0003F08CA00CA174008C9004108C8001830A1
:10040000C600C701481C1C2A4508FA07031C0E2A0F
:10041000F90A031D0E2AF80A0319C7174408F90739
:10042000031C152AF80A0319C7174308C000C01790
:100430004008F8070318C717C70DF80CF90CFA0C99
:10044000CA0CC90CC80C0310C60B012A0130F707EF
:1004500003184E2AF81B332ACA0DFA0DF90DF80DB0
:10046000F70303194E2ACA1F442AFA0A031D442A15
:10047000F90A031D442AF80A031D442AF80CF90C52
:10048000FA0CF70A03194E2A3F08C7004308C706AB
:10049000C71F4C2AF817522AF813522AF701F801FD
:1004A000F901FA017A08B4007908B3007808B200BB
:1004B0007708B100B80BD0293408C1003308C00058
:1004C0003208BF003108BE003E08B63CBE00FA014B
:1004D0003F08C200BF170310BF0CC00CC10CFA0CC0
:1004E000F90CF80CF70CBE0B6B2AC21F822AF70915
:1004F000F809F909FA09F70A0319F80A0319F90AB8
:100500000319FA0A7A08B4007908B3007808B2002F
:100510007708B100B41F992AB603B616B109B2091B
:10052000B309B409B10A0319B20A0319B30A0319CA
:10053000B40A3B30BD009A30BC00CA30BB00BA01DF
:100540000A30B80035080319B60A3408C100330868
:10055000C0003208BF003108BE003D08C5003C089D
:10056000C4003B08C3003A08C20088210008B1005B
:10057000840A0008B200840A0008B300840A000854
:10058000B400FD308407F708031DD92A350A380264
:100590000319D92A36080319DB2A0F39380203193F
:1005A000D32A03180B2BB61B0B2B361BDB2A203050
:1005B000072B2030B605B61EE92AB6123508031DF2
:1005C000B6037708B6002D30BE0005213608F700C7
:1005D000B60135083802031DF72A7708B6002E3019
:1005E000BE0005213608F7002030B6050030303057
:1005F000B61E072BB6123508031DB6037708B600E2
:100600002D30BE0005213608F700B6013030F7075F
:100610007708BE0005213D08C1003C08C0003B082A
:10062000BF003A08BE00C501C401C3010A30C200C0
:1006300088217A08BD007908BC007808BB007708DB
:10064000BA00B80BA52A080080308318B606BB0193
:10065000BC013208BA003608BA0631080319142C56
:10066000B900F700350803191D2CB9020319B92B7D
:10067000031C772B3608BF00BF173708BE003808A9
:10068000BD00BC010310BF0CBE0CBD0CBC0CB90BF3
:10069000412BBA1F4E2B3B14312C3B1039103B160B
:1006A000343084008313462C3B12BA1B612B391C57
:1006B0006C2BBF0CBE0CBD0CBC0CF70A03192C2C08
:1006C0006C2BBF1B6F2B0310BC0DBD0DBE0DBF0DE2
:1006D000F70303192C2C612B3B17D92B3B13320842
:1006E000BA00BA1F752BBF17252CBF13252C350850
:1006F000B900F7003108B9023208BF00BF1733084C
:10070000BE003408BD00BC010310BF0CBE0CBD0C04
:10071000BC0CB90B832BBA1F902BBB14312CBB1014
:100720003910BB16383084008313462CBB12BA1B19
:10073000A32B391CAE2BBF0CBE0CBD0CBC0CF70A96
:1007400003192C2CAE2BBF1BB12B0310BC0DBD0D00
:10075000BE0DBF0DF70303192C2CA32BBB17D92BF0
:10076000BB133608BA00BA1FB72BBF17252CBF130F
:10077000252C3608BF00BF173708BE003808BD005B
:10078000BA1FC62BBF133B15312C3B11BC013910CE
:10079000343084008313462CBA1BEF2B3208BA0086
:1007A000391CD92BBF0CBE0CBD0CBC0CF70A0319AD
:1007B0002C2CBC1FEA2BBD0A031DEA2BBE0A031D0D
:1007C000EA2BBF0A031DEA2BBF0CBE0CBD0CF70AB7
:1007D00003192C2C3B1B6E2BBB1BB02B0E2C80301B
:1007E000BF06BF1FF72B312C3608BA00042C320885
:1007F000BA00BF08031D042CBE08031D042CBD084D
:10080000031D042CF701252CBF1B0E2C0310BC0D5F
:10081000BD0DBE0DBF0DF70B042C2C2CBA1F122CD6
:10082000BF17252CBF13252C3508F7003608BF004D
:100830003708BE003808BD00252C3108F700320803
:10084000BF003308BE003408BD003F08F8003E0872
:10085000F9003D08FA00642CF701F801F901FA01EA
:10086000642CBC01BD09BE09BF09BC09BC0A031D3B
:100870003F2CBD0A031D3F2CBE0A0319BF0A3B18BB
:100880004D2BBB188F2B3B19C52BF42B0008BD0734
:10089000031C502CBE0A031D502CBF0A0319391427
:1008A00084030008BE07031C582CBF0A031939141F
:1008B00084030008801F803ABF07031839143B1ACD
:1008C000542BBB1A962BCC2B08008E30F700310826
:1008D000F7023208F9003308F800F917F70803198E
:1008E0007C2C0310F908031D782CF80803197C2CC4
:1008F000F90CF80CF70B712CB21F832CF809F909CD
:10090000F80A0319F90A8A110A12C82D3208B90027
:100910003608B906B91F912C03110310B21B03143A
:10092000C42C3208B9003508BA003108BA020319DC
:100930009F2CB91FC42C0308013A8300C42C36082D
:10094000BA003208BA020319AB2CB91FC42C030831
:10095000013A8300C42C3708BA003308BA020319DD
:10096000B72CB91FC42C0308013A8300C42C3808E3
:10097000BA003408BA020319C32CB91FC42C0308E7
:10098000013A8300C42C03100800840183131F3034
:1009900083050530A100DC30A0000530A300DC3069
:1009A000A200AB01AA01A901A801AF01AE01AD01EE
:1009B000AC0183161F149F141F159F1107309C0054
:1009C000FF308312B000FF308316850000308600B0
:1009D000860183128601831688001F109F101F1145
:1009E0009F111F1383121F179F1383169F178312C4
:1009F0001F148316091283129412B0123008831642
:100A00008700831230163008831687008312B011D6
:100A1000300883168700013083129400003083165B
:100A200094000108C7390838810083129001003012
:100A3000F800920000308316920007309C000508F1
:100A400085000330F700F70B232D1C0883120D13CC
:100A500083169D0183127828BC281030F8001F08E7
:100A6000C73978049F000630F700F70B352D0000DA
:100A70001F151F19392D1E08FA0083161E08831230
:100A8000B1001E08B200E8207A08AB007908AA007D
:100A90007808A9007708A8001830F8001F08C7399F
:100AA00078049F000630F700F70B542D00001F1547
:100AB0001F19582D1E08FA0083161E088312B10054
:100AC0001E08B200E8207A08AF007908AE00780866
:100AD000AD007708AC000C3003178D0000308F009C
:100AE000031006300313B1003A21893084002B082B
:100AF000B4002A08B3002908B2002808B100023067
:100B0000B500CA21113003178D0000308F0003108B
:100B100006300313B1003A21893084002F08B40055
:100B20002E08B3002D08B2002C08B1000230B50029
:100B3000CA211930BF00162083142B08B4002A08DC
:100B4000B3002908B2002808B1002F08B8002E0809
:100B5000B7002D08B6002C08B50024237708B10093
:100B60007808B2007908B3007A08B4007708F70073
:100B70007808F8007908F9007A08FA00F8137A087A
:100B8000B4007908B3007808B2007708B100652C8A
:100B90007908A7007808A600A708031DD32D26080A
:100BA000073C0318A82E83102F08B4002E08B300AA
:100BB0002D08B2002C08B100B801B7016030B600B2
:100BC0008130B50024232B08B4002A08B30029087B
:100BD000B2002808B1007A08B8007908B700780890
:100BE000B6007708B5008624031C3C2E8316061138
:100BF000831206118316861083128614831606103C
:100C0000831206142108B100B10AB10303190C2E96
:100C1000FF30B400A820052E2008B400A8208316B9
:100C20000610831206102008203CB1004E30B2009E
:100C30002108031C210FB2023208B300B30AB30328
:100C40000319262EFF30B400A8201F2E3108B4004F
:100C5000A8202108A3002008A20021080A3C031CA8
:100C60003B2E031D372E2008283C031C3B2E0A3048
:100C7000A0070318A10AA72E83102F08B4002E087E
:100C8000B3002D08B2002C08B100B801B7016030E4
:100C9000B6008130B50024237A08B4007908B30087
:100CA0007808B2007708B1002B08B8002A08B7000E
:100CB0002908B6002808B5008624031CA72E831631
:100CC000061183120611831686108312861483166A
:100CD0000610831206142308B100B10AB1030319E8
:100CE000752EFF30B400A8206E2E2208B400A82074
:100CF00083160610831206102208203CB1004E30E5
:100D0000B2002308031C230FB2023208B300B30A57
:100D1000B30303198F2EFF30B400A820882E3108AA
:100D2000B400A8202308A1002208A0002308013C49
:100D30000318A72EFF3A031DA12E2208573C0318C3
:100D4000A72E0A30A2020030031C0130A302B42EE9
:100D500083160611831206158316861083128610D9
:0C0D600083160610831206102D2D630070
:02400E00393F38
:00000001FF
;PIC16F877A
;CRC=55F8  CREATED="16-May-18 17:52"
